{
  "_format": "hh-sol-artifact-1",
  "contractName": "FlowFactory",
  "sourceName": "contracts/flow/basic/FlowFactory.sol",
  "abi": [
    {
      "inputs": [],
      "stateMutability": "nonpayable",
      "type": "constructor"
    },
    {
      "inputs": [
        {
          "internalType": "address",
          "name": "child",
          "type": "address"
        }
      ],
      "name": "DuplicateChild",
      "type": "error"
    },
    {
      "anonymous": false,
      "inputs": [
        {
          "indexed": false,
          "internalType": "address",
          "name": "sender",
          "type": "address"
        },
        {
          "indexed": false,
          "internalType": "address",
          "name": "implementation",
          "type": "address"
        }
      ],
      "name": "Implementation",
      "type": "event"
    },
    {
      "anonymous": false,
      "inputs": [
        {
          "indexed": false,
          "internalType": "uint8",
          "name": "version",
          "type": "uint8"
        }
      ],
      "name": "Initialized",
      "type": "event"
    },
    {
      "anonymous": false,
      "inputs": [
        {
          "indexed": false,
          "internalType": "address",
          "name": "sender",
          "type": "address"
        },
        {
          "indexed": false,
          "internalType": "address",
          "name": "child",
          "type": "address"
        }
      ],
      "name": "NewChild",
      "type": "event"
    },
    {
      "inputs": [
        {
          "internalType": "bytes",
          "name": "data_",
          "type": "bytes"
        }
      ],
      "name": "createChild",
      "outputs": [
        {
          "internalType": "address",
          "name": "",
          "type": "address"
        }
      ],
      "stateMutability": "nonpayable",
      "type": "function"
    },
    {
      "inputs": [
        {
          "components": [
            {
              "components": [
                {
                  "internalType": "bytes[]",
                  "name": "sources",
                  "type": "bytes[]"
                },
                {
                  "internalType": "uint256[]",
                  "name": "constants",
                  "type": "uint256[]"
                }
              ],
              "internalType": "struct StateConfig",
              "name": "stateConfig",
              "type": "tuple"
            },
            {
              "components": [
                {
                  "internalType": "address",
                  "name": "expressionDeployer",
                  "type": "address"
                },
                {
                  "internalType": "address",
                  "name": "interpreter",
                  "type": "address"
                },
                {
                  "components": [
                    {
                      "internalType": "bytes[]",
                      "name": "sources",
                      "type": "bytes[]"
                    },
                    {
                      "internalType": "uint256[]",
                      "name": "constants",
                      "type": "uint256[]"
                    }
                  ],
                  "internalType": "struct StateConfig[]",
                  "name": "flows",
                  "type": "tuple[]"
                }
              ],
              "internalType": "struct FlowCommonConfig",
              "name": "flowConfig",
              "type": "tuple"
            }
          ],
          "internalType": "struct FlowConfig",
          "name": "config_",
          "type": "tuple"
        }
      ],
      "name": "createChildTyped",
      "outputs": [
        {
          "internalType": "contract Flow",
          "name": "",
          "type": "address"
        }
      ],
      "stateMutability": "nonpayable",
      "type": "function"
    },
    {
      "inputs": [],
      "name": "implementation",
      "outputs": [
        {
          "internalType": "address",
          "name": "",
          "type": "address"
        }
      ],
      "stateMutability": "view",
      "type": "function"
    },
    {
      "inputs": [
        {
          "internalType": "address",
          "name": "maybeChild_",
          "type": "address"
        }
      ],
      "name": "isChild",
      "outputs": [
        {
          "internalType": "bool",
          "name": "",
          "type": "bool"
        }
      ],
      "stateMutability": "view",
      "type": "function"
    }
  ],
  "bytecode": "0x60a060405234801561001057600080fd5b50610019610099565b600060405161002790610159565b604051809103906000f080158015610043573d6000803e3d6000fd5b50604080513381526001600160a01b03831660208201529192507f7fac34ecf0b1b374cd9659e3d17db602659d53f1162b1f20142e6c02694aed70910160405180910390a16001600160a01b0316608052610166565b600054610100900460ff16156101055760405162461bcd60e51b815260206004820152602760248201527f496e697469616c697a61626c653a20636f6e747261637420697320696e697469604482015266616c697a696e6760c81b606482015260840160405180910390fd5b60005460ff9081161015610157576000805460ff191660ff9081179091556040519081527f7f26b83ff96e1f2b6a682f133852f6798a09c465da95921460cefb38474024989060200160405180910390a15b565b6137ef80610fc383390190565b608051610e3c61018760003960008181609301526103020152610e3c6000f3fe608060405234801561001057600080fd5b506004361061004c5760003560e01c80632ea72a49146100515780635c60da1b1461008e578063745e1b1b146100b5578063fc91a897146100c8575b600080fd5b61006461005f3660046105de565b610111565b60405173ffffffffffffffffffffffffffffffffffffffff90911681526020015b60405180910390f35b6100647f000000000000000000000000000000000000000000000000000000000000000081565b6100646100c33660046107aa565b61023f565b6101016100d6366004610900565b73ffffffffffffffffffffffffffffffffffffffff1660009081526033602052604090205460ff1690565b6040519015158152602001610085565b600061011b61026f565b6000610126836102e2565b73ffffffffffffffffffffffffffffffffffffffff811660009081526033602052604090205490915060ff16156101a6576040517fd23867da00000000000000000000000000000000000000000000000000000000815273ffffffffffffffffffffffffffffffffffffffff821660048201526024015b60405180910390fd5b73ffffffffffffffffffffffffffffffffffffffff811660008181526033602090815260409182902080547fffffffffffffffffffffffffffffffffffffffffffffffffffffffffffffff001660011790558151338152908101929092527f7da70c4e5387d7038610b79ca7d304caaef815826e51e67cf247135387a79bce910160405180910390a1905061023a60018055565b919050565b6000610269826040516020016102559190610a56565b604051602081830303815290604052610111565b92915050565b6002600154036102db576040517f08c379a000000000000000000000000000000000000000000000000000000000815260206004820152601f60248201527f5265656e7472616e637947756172643a207265656e7472616e742063616c6c00604482015260640161019d565b6002600155565b600080828060200190518101906102f99190610cc9565b905060006103267f00000000000000000000000000000000000000000000000000000000000000006103b5565b6040517f81e6a71100000000000000000000000000000000000000000000000000000000815290915073ffffffffffffffffffffffffffffffffffffffff8216906381e6a7119061037b908590600401610a56565b600060405180830381600087803b15801561039557600080fd5b505af11580156103a9573d6000803e3d6000fd5b50929695505050505050565b6000763d602d80600a3d3981f3363d3d373d3d3d363d730000008260601b60e81c176000526e5af43d82803e903d91602b57fd5bf38260781b17602052603760096000f0905073ffffffffffffffffffffffffffffffffffffffff811661023a576040517f08c379a000000000000000000000000000000000000000000000000000000000815260206004820152601660248201527f455243313136373a20637265617465206661696c656400000000000000000000604482015260640161019d565b7f4e487b7100000000000000000000000000000000000000000000000000000000600052604160045260246000fd5b6040805190810167ffffffffffffffff811182821017156104ca576104ca610478565b60405290565b6040516060810167ffffffffffffffff811182821017156104ca576104ca610478565b604051601f82017fffffffffffffffffffffffffffffffffffffffffffffffffffffffffffffffe016810167ffffffffffffffff8111828210171561053a5761053a610478565b604052919050565b600067ffffffffffffffff82111561055c5761055c610478565b50601f017fffffffffffffffffffffffffffffffffffffffffffffffffffffffffffffffe01660200190565b600082601f83011261059957600080fd5b81356105ac6105a782610542565b6104f3565b8181528460208386010111156105c157600080fd5b816020850160208301376000918101602001919091529392505050565b6000602082840312156105f057600080fd5b813567ffffffffffffffff81111561060757600080fd5b61061384828501610588565b949350505050565b600067ffffffffffffffff82111561063557610635610478565b5060051b60200190565b600082601f83011261065057600080fd5b813560206106606105a78361061b565b82815260059290921b8401810191818101908684111561067f57600080fd5b8286015b8481101561069a5780358352918301918301610683565b509695505050505050565b6000604082840312156106b757600080fd5b6106bf6104a7565b9050813567ffffffffffffffff808211156106d957600080fd5b818401915084601f8301126106ed57600080fd5b813560206106fd6105a78361061b565b82815260059290921b8401810191818101908884111561071c57600080fd5b8286015b84811015610754578035868111156107385760008081fd5b6107468b86838b0101610588565b845250918301918301610720565b508652508581013593508284111561076b57600080fd5b6107778785880161063f565b818601525050505092915050565b73ffffffffffffffffffffffffffffffffffffffff811681146107a757600080fd5b50565b600060208083850312156107bd57600080fd5b823567ffffffffffffffff808211156107d557600080fd5b90840190604082870312156107e957600080fd5b6107f16104a7565b82358281111561080057600080fd5b61080c888286016106a5565b825250838301358281111561082057600080fd5b92909201916060838803121561083557600080fd5b61083d6104d0565b833561084881610785565b81528385013561085781610785565b8186015260408401358381111561086d57600080fd5b80850194505087601f85011261088257600080fd5b83356108906105a78261061b565b81815260059190911b8501860190868101908a8311156108af57600080fd5b8787015b838110156108e7578035878111156108cb5760008081fd5b6108d98d8b838c01016106a5565b8452509188019188016108b3565b5060408401525050938101939093525090949350505050565b60006020828403121561091257600080fd5b813561091d81610785565b9392505050565b60005b8381101561093f578181015183820152602001610927565b50506000910152565b600081518084526020808501945080840160005b838110156109785781518752958201959082019060010161095c565b509495945050505050565b60006040830182516040855281815180845260608701915060608160051b88010193506020808401935060005b82811015610a32577fffffffffffffffffffffffffffffffffffffffffffffffffffffffffffffffa0898703018452845180518088526109f581858a01868501610924565b601f017fffffffffffffffffffffffffffffffffffffffffffffffffffffffffffffffe016969096018201955093810193928101926001016109b0565b5080870151935087850381890152505050610a4d8282610948565b95945050505050565b600060208083528351604082850152610a726060850182610983565b9050818501517fffffffffffffffffffffffffffffffffffffffffffffffffffffffffffffffe08583030160408601526060820173ffffffffffffffffffffffffffffffffffffffff8083511684528085840151168585015250604082015191506060604084015280825180835260808501915060808160051b8601019250858401935060005b81811015610b45577fffffffffffffffffffffffffffffffffffffffffffffffffffffffffffffff80868503018352610b33848651610983565b94870194935091860191600101610af9565b509198975050505050505050565b600082601f830112610b6457600080fd5b81516020610b746105a78361061b565b82815260059290921b84018101918181019086841115610b9357600080fd5b8286015b8481101561069a5780518352918301918301610b97565b60006040808385031215610bc157600080fd5b610bc96104a7565b9150825167ffffffffffffffff80821115610be357600080fd5b818501915085601f830112610bf757600080fd5b81516020610c076105a78361061b565b82815260059290921b84018101918181019089841115610c2657600080fd5b8286015b84811015610c9757805186811115610c425760008081fd5b8701603f81018c13610c545760008081fd5b84810151610c646105a782610542565b8181528d8b838501011115610c795760008081fd5b610c88828883018d8601610924565b85525050918301918301610c2a565b5087525086810151945082851115610cae57600080fd5b610cba88868901610b53565b81870152505050505092915050565b60006020808385031215610cdc57600080fd5b825167ffffffffffffffff80821115610cf457600080fd5b9084019060408287031215610d0857600080fd5b610d106104a7565b825182811115610d1f57600080fd5b610d2b88828601610bae565b8252508383015182811115610d3f57600080fd5b929092019160608388031215610d5457600080fd5b610d5c6104d0565b8351610d6781610785565b815283850151610d7681610785565b81860152604084015183811115610d8c57600080fd5b80850194505087601f850112610da157600080fd5b8351610daf6105a78261061b565b81815260059190911b8501860190868101908a831115610dce57600080fd5b8787015b838110156108e757805187811115610dea5760008081fd5b610df88d8b838c0101610bae565b845250918801918801610dd256fea26469706673582212201b5e28c95d834757e185774b9d85de8c5f2c5d2dd7429860d835e1e5468f885d64736f6c6343000811003360806040523480156200001157600080fd5b506200001c62000022565b620000e4565b600054610100900460ff16156200008f5760405162461bcd60e51b815260206004820152602760248201527f496e697469616c697a61626c653a20636f6e747261637420697320696e697469604482015266616c697a696e6760c81b606482015260840160405180910390fd5b60005460ff9081161015620000e2576000805460ff191660ff9081179091556040519081527f7f26b83ff96e1f2b6a682f133852f6798a09c465da95921460cefb38474024989060200160405180910390a15b565b6136fb80620000f46000396000f3fe60806040526004361061007f5760003560e01c8063ac9650d81161004e578063ac9650d814610146578063ae910b3d14610173578063bc197c81146101a0578063f23a6e61146101e557600080fd5b806301ffc9a71461008b578063150b7a02146100c0578063522fb10b1461011157806381e6a7111461012657600080fd5b3661008657005b600080fd5b34801561009757600080fd5b506100ab6100a6366004612424565b61022a565b60405190151581526020015b60405180910390f35b3480156100cc57600080fd5b506100e06100db3660046125e3565b6102c3565b6040517fffffffff0000000000000000000000000000000000000000000000000000000090911681526020016100b7565b61012461011f3660046126d3565b6102ed565b005b34801561013257600080fd5b5061012461014136600461283f565b610399565b34801561015257600080fd5b5061016661016136600461287a565b610582565b6040516100b791906129b2565b34801561017f57600080fd5b5061019361018e3660046126d3565b610677565b6040516100b79190612ab4565b3480156101ac57600080fd5b506100e06101bb366004612ba9565b7fbc197c810000000000000000000000000000000000000000000000000000000095945050505050565b3480156101f157600080fd5b506100e0610200366004612c57565b7ff23a6e610000000000000000000000000000000000000000000000000000000095945050505050565b60007fffffffff0000000000000000000000000000000000000000000000000000000082167f4e2312e00000000000000000000000000000000000000000000000000000000014806102bd57507f01ffc9a7000000000000000000000000000000000000000000000000000000007fffffffff000000000000000000000000000000000000000000000000000000008316145b92915050565b7f150b7a02000000000000000000000000000000000000000000000000000000005b949350505050565b6102f56106f6565b6040805160008082526020820190925261032c9082610324565b606081526020019060019003908161030f5790505b508484610769565b90507f17a5c0f3785132a57703932032f6863e7920434150aa1dc940e567b440fdce1f338260405161035f929190612d38565b60405180910390a160008060006103768785610ad3565b925092509250610387838383610b32565b5050505061039460018055565b505050565b600054610100900460ff16158080156103b95750600054600160ff909116105b806103d35750303b1580156103d3575060005460ff166001145b610464576040517f08c379a000000000000000000000000000000000000000000000000000000000815260206004820152602e60248201527f496e697469616c697a61626c653a20636f6e747261637420697320616c72656160448201527f647920696e697469616c697a656400000000000000000000000000000000000060648201526084015b60405180910390fd5b600080547fffffffffffffffffffffffffffffffffffffffffffffffffffffffffffffff0016600117905580156104c257600080547fffffffffffffffffffffffffffffffffffffffffffffffffffffffffffff00ff166101001790555b6104e26104d26020840184612d67565b6104db90612da5565b6004610be5565b7fb8d34ea9112583c0d2407f9fed96f7cead0ef0015a7c3e6da620e7b95e13eb8d338360405161051392919061319f565b60405180910390a1801561057e57600080547fffffffffffffffffffffffffffffffffffffffffffffffffffffffffffff00ff169055604051600181527f7f26b83ff96e1f2b6a682f133852f6798a09c465da95921460cefb38474024989060200160405180910390a15b5050565b60608167ffffffffffffffff81111561059d5761059d61248b565b6040519080825280602002602001820160405280156105d057816020015b60608152602001906001900390816105bb5790505b50905060005b8281101561067057610640308585848181106105f4576105f4613300565b9050602002810190610606919061332f565b8080601f016020809104026020016040519081016040528093929190818152602001838380828437600092019190915250610eb392505050565b82828151811061065257610652613300565b6020026020010181905250808061066890613394565b9150506105d6565b5092915050565b6106a26040518060800160405280606081526020016060815260200160608152602001606081525090565b604080516000808252602082019092526106d990826106d1565b60608152602001906001900390816106bc5790505b508585610769565b905060006106e78683610ad3565b509093505050505b9392505050565b600260015403610762576040517f08c379a000000000000000000000000000000000000000000000000000000000815260206004820152601f60248201527f5265656e7472616e637947756172643a207265656e7472616e742063616c6c00604482015260640161045b565b6002600155565b60606000825167ffffffffffffffff8111156107875761078761248b565b6040519080825280602002602001820160405280156107b0578160200160208202803683370190505b5090506000808451116107c45760006107ca565b83516001015b865101600201905060008167ffffffffffffffff8111156107ed576107ed61248b565b60405190808252806020026020018201604052801561082057816020015b606081526020019060019003908161080b5790505b509050600061082d610ff2565b82828151811061083f5761083f613300565b602002602001018190525060005b885181101561089d57818060010192505088818151811061087057610870613300565b602002602001015183838151811061088a5761088a613300565b602090810291909101015260010161084d565b508080600101915050868282815181106108b9576108b9613300565b6020908102919091010152855115610ac8578080600101915050838282815181106108e6576108e6613300565b602002602001018190525060005b8651811015610ac6576109f087828151811061091257610912613300565b6020026020010151600001516109cd89848151811061093357610933613300565b60200260200101516040015160405160200161094f91906133f3565b604080517fffffffffffffffffffffffffffffffffffffffffffffffffffffffffffffffe081840301815282825280516020918201207f19457468657265756d205369676e6564204d6573736167653a0a33320000000084830152603c8085019190915282518085039091018152605c909301909152815191012090565b8984815181106109df576109df613300565b602002602001015160200151611003565b610a29576040517f52bf98480000000000000000000000000000000000000000000000000000000081526004810182905260240161045b565b868181518110610a3b57610a3b613300565b60200260200101516000015173ffffffffffffffffffffffffffffffffffffffff16858281518110610a6f57610a6f613300565b6020026020010181815250508180600101925050868181518110610a9557610a95613300565b602002602001015160400151838381518110610ab357610ab3613300565b60209081029190910101526001016108f4565b505b509695505050505050565b610afe6040518060800160405280606081526020016060815260200160608152602001606081525090565b60006060600080600080610b1289896111d0565b9350935093509350610b24848461133d565b999198509650945050505050565b805115610bc1576040517f946aadc600000000000000000000000000000000000000000000000000000000815273ffffffffffffffffffffffffffffffffffffffff83169063946aadc690610b8e906000908590600401613429565b600060405180830381600087803b158015610ba857600080fd5b505af1158015610bbc573d6000803e3d6000fd5b505050505b610bca83611549565b610bd38361171d565b610bdc8361187b565b61039483611a0c565b600054610100900460ff16610c7c576040517f08c379a000000000000000000000000000000000000000000000000000000000815260206004820152602b60248201527f496e697469616c697a61626c653a20636f6e7472616374206973206e6f74206960448201527f6e697469616c697a696e67000000000000000000000000000000000000000000606482015260840161045b565b610c84611bbc565b610c8c611bbc565b610c94611bbc565b6004811015610cff576040517f08c379a000000000000000000000000000000000000000000000000000000000815260206004820152601560248201527f424144204d494e20535441434b53204c454e4754480000000000000000000000604482015260640161045b565b602082015161012d80547fffffffffffffffffffffffff00000000000000000000000000000000000000001673ffffffffffffffffffffffffffffffffffffffff90921691909117905560005b826040015151811015610394576000836000015173ffffffffffffffffffffffffffffffffffffffff16631ed061d985604001518481518110610d9157610d91613300565b6020026020010151610da286611c55565b6040518363ffffffff1660e01b8152600401610dbf929190613442565b6020604051808303816000875af1158015610dde573d6000803e3d6000fd5b505050506040513d601f19601f82011682018060405250810190610e0291906134ad565b90506000602082901b77ffffffffffffffffffffffffffffffffffffffff000000001661ffff17600081815261012e60209081526040918290206001905587810151825133815273ffffffffffffffffffffffffffffffffffffffff909116918101919091529081018290529091507f0392789afa55e5b564b41f5e52285c849fc771b31ccc0e222999b6de72bc55949060600160405180910390a150508080610eab90613394565b915050610d4c565b606073ffffffffffffffffffffffffffffffffffffffff83163b610f59576040517f08c379a000000000000000000000000000000000000000000000000000000000815260206004820152602660248201527f416464726573733a2064656c65676174652063616c6c20746f206e6f6e2d636f60448201527f6e74726163740000000000000000000000000000000000000000000000000000606482015260840161045b565b6000808473ffffffffffffffffffffffffffffffffffffffff1684604051610f8191906134ca565b600060405180830381855af49150503d8060008114610fbc576040519150601f19603f3d011682016040523d82523d6000602084013e610fc1565b606091505b5091509150610fe9828260405180606001604052806027815260200161369f60279139611c87565b95945050505050565b6060610ffe3330611ca0565b905090565b60008060006110128585611cd4565b9092509050600081600481111561102b5761102b6134dc565b14801561106357508573ffffffffffffffffffffffffffffffffffffffff168273ffffffffffffffffffffffffffffffffffffffff16145b15611073576001925050506106ef565b6000808773ffffffffffffffffffffffffffffffffffffffff16631626ba7e60e01b88886040516024016110a892919061350b565b604080517fffffffffffffffffffffffffffffffffffffffffffffffffffffffffffffffe08184030181529181526020820180517bffffffffffffffffffffffffffffffffffffffffffffffffffffffff167fffffffff0000000000000000000000000000000000000000000000000000000090941693909317909252905161113191906134ca565b600060405180830381855afa9150503d806000811461116c576040519150601f19603f3d011682016040523d82523d6000602084013e611171565b606091505b5091509150818015611184575080516020145b80156111c4575080517f1626ba7e00000000000000000000000000000000000000000000000000000000906111c29083016020908101908401613524565b145b98975050505050505050565b600082815261012e602052604081205481908190606090869061124f576040517f08c379a000000000000000000000000000000000000000000000000000000000815260206004820152601160248201527f554e524547495354455245445f464c4f57000000000000000000000000000000604482015260640161045b565b61012d546040517f385e37fe0000000000000000000000000000000000000000000000000000000081526000918291829173ffffffffffffffffffffffffffffffffffffffff169063385e37fe906112af9084908e908e9060040161353d565b600060405180830381865afa1580156112cc573d6000803e3d6000fd5b505050506040513d6000823e601f3d9081017fffffffffffffffffffffffffffffffffffffffffffffffffffffffffffffffe016820160405261131291908101906135b7565b9250925092506113228360200190565b8351909b602091820290940101995090975095509350505050565b6113686040518060800160405280606081526020016060815260200160608152602001606081525090565b6113936040518060800160405280606081526020016060815260200160608152602001606081525090565b60408051808201909152601281527f5241494e5f464c4f575f53454e54494e454c000000000000000000000000000060209091015260606113f784867ffea74d0c9bf4a3c28f0dd0674db22a3d7f8bf259c56af19f4ac1e735b156974f6003611d19565b80845260408051808201909152601281527f5241494e5f464c4f575f53454e54494e454c0000000000000000000000000000602090910152909450905061146184867ffea74d0c9bf4a3c28f0dd0674db22a3d7f8bf259c56af19f4ac1e735b156974f6004611d19565b602084810182905260408051808201909152601281527f5241494e5f464c4f575f53454e54494e454c000000000000000000000000000091015290945090506114cd84867ffea74d0c9bf4a3c28f0dd0674db22a3d7f8bf259c56af19f4ac1e735b156974f6004611d19565b60408481018290528051808201909152601281527f5241494e5f464c4f575f53454e54494e454c0000000000000000000000000000602090910152909450905061153a84867ffea74d0c9bf4a3c28f0dd0674db22a3d7f8bf259c56af19f4ac1e735b156974f6005611d19565b60608401525090949350505050565b60408051606081018252600080825260208201819052918101829052819060005b8451518110156116f857845180518290811061158857611588613300565b602002602001015191503373ffffffffffffffffffffffffffffffffffffffff16826000015173ffffffffffffffffffffffffffffffffffffffff160361162a57602082015173ffffffffffffffffffffffffffffffffffffffff16301461161c576040517f56c7455200000000000000000000000000000000000000000000000000000000815260040160405180910390fd5b8160400151840193506116f0565b815173ffffffffffffffffffffffffffffffffffffffff16301461167a576040517f56c7455200000000000000000000000000000000000000000000000000000000815260040160405180910390fd5b3373ffffffffffffffffffffffffffffffffffffffff16826020015173ffffffffffffffffffffffffffffffffffffffff16036116bf578160400151830192506116f0565b6116f08260400151836020015173ffffffffffffffffffffffffffffffffffffffff16611dca90919063ffffffff16565b60010161156a565b50821561170757823403820191505b8115611717576117173383611dca565b50505050565b6040805160808101825260008082526020820181905291810182905260608101829052905b826020015151811015610394578260200151818151811061176557611765613300565b602002602001015191503373ffffffffffffffffffffffffffffffffffffffff16826020015173ffffffffffffffffffffffffffffffffffffffff16036117dc576040820151606083015183516117d79273ffffffffffffffffffffffffffffffffffffffff90911691339190611f24565b611873565b3073ffffffffffffffffffffffffffffffffffffffff16826020015173ffffffffffffffffffffffffffffffffffffffff1603611841576040820151606083015183516117d79273ffffffffffffffffffffffffffffffffffffffff90911691612000565b6040517fa521c60f00000000000000000000000000000000000000000000000000000000815260040160405180910390fd5b600101611742565b6040805160808101825260008082526020820181905291810182905260608101829052905b82604001515181101561039457826040015181815181106118c3576118c3613300565b602002602001015191503373ffffffffffffffffffffffffffffffffffffffff16826020015173ffffffffffffffffffffffffffffffffffffffff16141580156119275750602082015173ffffffffffffffffffffffffffffffffffffffff163014155b1561195e576040517f3a5befc500000000000000000000000000000000000000000000000000000000815260040160405180910390fd5b81516020830151604080850151606086015191517f42842e0e00000000000000000000000000000000000000000000000000000000815273ffffffffffffffffffffffffffffffffffffffff9384166004820152908316602482015260448101919091529116906342842e0e90606401600060405180830381600087803b1580156119e857600080fd5b505af11580156119fc573d6000803e3d6000fd5b5050600190920191506118a09050565b6040805160a0810182526000808252602082018190529181018290526060810182905260808101829052905b8260600151518110156103945782606001518181518110611a5b57611a5b613300565b602002602001015191503373ffffffffffffffffffffffffffffffffffffffff16826020015173ffffffffffffffffffffffffffffffffffffffff1614158015611abf5750602082015173ffffffffffffffffffffffffffffffffffffffff163014155b15611af6576040517fc6a91ecc00000000000000000000000000000000000000000000000000000000815260040160405180910390fd5b815160208301516040808501516060860151608087015192517ff242432a00000000000000000000000000000000000000000000000000000000815273ffffffffffffffffffffffffffffffffffffffff948516600482015291841660248301526044820152606481019190915260a06084820152600060a482015291169063f242432a9060c401600060405180830381600087803b158015611b9857600080fd5b505af1158015611bac573d6000803e3d6000fd5b505060019092019150611a389050565b600054610100900460ff16611c53576040517f08c379a000000000000000000000000000000000000000000000000000000000815260206004820152602b60248201527f496e697469616c697a61626c653a20636f6e7472616374206973206e6f74206960448201527f6e697469616c697a696e67000000000000000000000000000000000000000000606482015260840161045b565b565b604080516001808252818301909252606091600091906020808301908036833750505060208101939093525090919050565b60608315611c965750816106ef565b6106ef8383612056565b6040805160028082526060808301845292600092919060208301908036833750505060208101949094525050604082015290565b6000808251604103611d0a5760208301516040840151606085015160001a611cfe8782858561209a565b94509450505050611d12565b506000905060025b9250929050565b600060608180611d2b88888888612186565b915091506000858251611d3e919061362e565b905060008167ffffffffffffffff811115611d5b57611d5b61248b565b604051908082528060200260200182016040528015611d84578160200160208202803683370190505b509050602081016020830281016020850160208a025b82841015611db45781845260209093019290810190611d9a565b5095975091955050505050505b94509492505050565b80471015611e34576040517f08c379a000000000000000000000000000000000000000000000000000000000815260206004820152601d60248201527f416464726573733a20696e73756666696369656e742062616c616e6365000000604482015260640161045b565b60008273ffffffffffffffffffffffffffffffffffffffff168260405160006040518083038185875af1925050503d8060008114611e8e576040519150601f19603f3d011682016040523d82523d6000602084013e611e93565b606091505b5050905080610394576040517f08c379a000000000000000000000000000000000000000000000000000000000815260206004820152603a60248201527f416464726573733a20756e61626c6520746f2073656e642076616c75652c207260448201527f6563697069656e74206d61792068617665207265766572746564000000000000606482015260840161045b565b60405173ffffffffffffffffffffffffffffffffffffffff808516602483015283166044820152606481018290526117179085907f23b872dd00000000000000000000000000000000000000000000000000000000906084015b604080517fffffffffffffffffffffffffffffffffffffffffffffffffffffffffffffffe08184030181529190526020810180517bffffffffffffffffffffffffffffffffffffffffffffffffffffffff167fffffffff00000000000000000000000000000000000000000000000000000000909316929092179091526121e6565b60405173ffffffffffffffffffffffffffffffffffffffff83166024820152604481018290526103949084907fa9059cbb0000000000000000000000000000000000000000000000000000000090606401611f7e565b8151156120665781518083602001fd5b806040517f08c379a000000000000000000000000000000000000000000000000000000000815260040161045b9190613669565b6000807f7fffffffffffffffffffffffffffffff5d576e7357a4501ddfe92f46681b20a08311156120d15750600090506003611dc1565b6040805160008082526020820180845289905260ff881692820192909252606081018690526080810185905260019060a0016020604051602081039080840390855afa158015612125573d6000803e3d6000fd5b50506040517fffffffffffffffffffffffffffffffffffffffffffffffffffffffffffffffe0015191505073ffffffffffffffffffffffffffffffffffffffff811661217957600060019250925050611dc1565b9660009650945050505050565b60006060808561219557600080fd5b6000806020860260208a039950602089035b808b11156121cd578a5189036121bf578a93506121cd565b9981900399918701916121a7565b5050816121d957600080fd5b8152969795505050505050565b6000612248826040518060400160405280602081526020017f5361666545524332303a206c6f772d6c6576656c2063616c6c206661696c65648152508573ffffffffffffffffffffffffffffffffffffffff166122f29092919063ffffffff16565b8051909150156103945780806020019051810190612266919061367c565b610394576040517f08c379a000000000000000000000000000000000000000000000000000000000815260206004820152602a60248201527f5361666545524332303a204552433230206f7065726174696f6e20646964206e60448201527f6f74207375636365656400000000000000000000000000000000000000000000606482015260840161045b565b60606102e58484600085856000808673ffffffffffffffffffffffffffffffffffffffff16858760405161232691906134ca565b60006040518083038185875af1925050503d8060008114612363576040519150601f19603f3d011682016040523d82523d6000602084013e612368565b606091505b509150915061237987838387612384565b979650505050505050565b6060831561241a5782516000036124135773ffffffffffffffffffffffffffffffffffffffff85163b612413576040517f08c379a000000000000000000000000000000000000000000000000000000000815260206004820152601d60248201527f416464726573733a2063616c6c20746f206e6f6e2d636f6e7472616374000000604482015260640161045b565b50816102e5565b6102e58383612056565b60006020828403121561243657600080fd5b81357fffffffff00000000000000000000000000000000000000000000000000000000811681146106ef57600080fd5b73ffffffffffffffffffffffffffffffffffffffff8116811461248857600080fd5b50565b7f4e487b7100000000000000000000000000000000000000000000000000000000600052604160045260246000fd5b6040516060810167ffffffffffffffff811182821017156124dd576124dd61248b565b60405290565b6040805190810167ffffffffffffffff811182821017156124dd576124dd61248b565b604051601f82017fffffffffffffffffffffffffffffffffffffffffffffffffffffffffffffffe016810167ffffffffffffffff8111828210171561254d5761254d61248b565b604052919050565b600082601f83011261256657600080fd5b813567ffffffffffffffff8111156125805761258061248b565b6125b160207fffffffffffffffffffffffffffffffffffffffffffffffffffffffffffffffe0601f84011601612506565b8181528460208386010111156125c657600080fd5b816020850160208301376000918101602001919091529392505050565b600080600080608085870312156125f957600080fd5b843561260481612466565b9350602085013561261481612466565b925060408501359150606085013567ffffffffffffffff81111561263757600080fd5b61264387828801612555565b91505092959194509250565b600067ffffffffffffffff8211156126695761266961248b565b5060051b60200190565b600082601f83011261268457600080fd5b813560206126996126948361264f565b612506565b82815260059290921b840181019181810190868411156126b857600080fd5b8286015b84811015610ac857803583529183019183016126bc565b6000806000606084860312156126e857600080fd5b8335925060208085013567ffffffffffffffff8082111561270857600080fd5b61271488838901612673565b9450604087013591508082111561272a57600080fd5b818701915087601f83011261273e57600080fd5b813561274c6126948261264f565b81815260059190911b8301840190848101908a83111561276b57600080fd5b8585015b8381101561282e578035858111156127875760008081fd5b86016060818e037fffffffffffffffffffffffffffffffffffffffffffffffffffffffffffffffe00112156127bc5760008081fd5b6127c46124ba565b888201356127d181612466565b81526040820135878111156127e65760008081fd5b6127f48f8b83860101612555565b8a8301525060608201358781111561280c5760008081fd5b61281a8f8b83860101612673565b60408301525084525091860191860161276f565b508096505050505050509250925092565b60006020828403121561285157600080fd5b813567ffffffffffffffff81111561286857600080fd5b8201604081850312156106ef57600080fd5b6000806020838503121561288d57600080fd5b823567ffffffffffffffff808211156128a557600080fd5b818501915085601f8301126128b957600080fd5b8135818111156128c857600080fd5b8660208260051b85010111156128dd57600080fd5b60209290920196919550909350505050565b60005b8381101561290a5781810151838201526020016128f2565b50506000910152565b6000815180845261292b8160208601602086016128ef565b601f017fffffffffffffffffffffffffffffffffffffffffffffffffffffffffffffffe0169290920160200192915050565b600081518084526020808501808196508360051b8101915082860160005b858110156129a5578284038952612993848351612913565b9885019893509084019060010161297b565b5091979650505050505050565b6020815260006106ef602083018461295d565b600081518084526020808501945080840160005b83811015612a32578151805173ffffffffffffffffffffffffffffffffffffffff9081168952848201518116858a01526040808301519091169089015260609081015190880152608090960195908201906001016129d9565b509495945050505050565b600081518084526020808501945080840160005b83811015612a32578151805173ffffffffffffffffffffffffffffffffffffffff9081168952848201518116858a015260408083015190911690890152606080820151908901526080908101519088015260a09096019590820190600101612a51565b60208082528251608083830152805160a0840181905260009291820190839060c08601905b80831015612b28578351805173ffffffffffffffffffffffffffffffffffffffff9081168452868201511686840152604090810151908301529284019260019290920191606090910190612ad9565b508387015193507fffffffffffffffffffffffffffffffffffffffffffffffffffffffffffffffe0925082868203016040870152612b6681856129c5565b93505050604085015181858403016060860152612b8383826129c5565b925050606085015181858403016080860152612b9f8382612a3d565b9695505050505050565b600080600080600060a08688031215612bc157600080fd5b8535612bcc81612466565b94506020860135612bdc81612466565b9350604086013567ffffffffffffffff80821115612bf957600080fd5b612c0589838a01612673565b94506060880135915080821115612c1b57600080fd5b612c2789838a01612673565b93506080880135915080821115612c3d57600080fd5b50612c4a88828901612555565b9150509295509295909350565b600080600080600060a08688031215612c6f57600080fd5b8535612c7a81612466565b94506020860135612c8a81612466565b93506040860135925060608601359150608086013567ffffffffffffffff811115612cb457600080fd5b612c4a88828901612555565b600081518084526020808501945080840160005b83811015612a3257815187529582019590820190600101612cd4565b600081518084526020808501808196508360051b8101915082860160005b858110156129a5578284038952612d26848351612cc0565b98850198935090840190600101612d0e565b73ffffffffffffffffffffffffffffffffffffffff831681526040602082015260006102e56040830184612cf0565b600082357fffffffffffffffffffffffffffffffffffffffffffffffffffffffffffffffa1833603018112612d9b57600080fd5b9190910192915050565b600060608236031215612db757600080fd5b612dbf6124ba565b612dc98335612466565b82358152602080840135612ddc81612466565b8282015260408481013567ffffffffffffffff80821115612dfc57600080fd5b9086019036601f830112612e0f57600080fd5b8135612e1d6126948261264f565b81815260059190911b83018501908581019036831115612e3c57600080fd5b8685015b83811015612f52578481351115612e5657600080fd5b80358601877fffffffffffffffffffffffffffffffffffffffffffffffffffffffffffffffe0823603011215612e8b57600080fd5b612e936124e3565b8982013587811115612ea457600080fd5b820136603f820112612eb557600080fd5b8a810135612ec56126948261264f565b81815260059190911b82018b01908c81019036831115612ee457600080fd5b8c84015b83811015612f1a578b81351115612efe57600080fd5b612f0d368f8335880101612555565b8352918e01918e01612ee8565b5084525050508189013587811115612f3157600080fd5b612f3f368c83860101612673565b828c015250845250918701918701612e40565b509487019490945250939695505050505050565b600082357fffffffffffffffffffffffffffffffffffffffffffffffffffffffffffffffc1833603018112612f9a57600080fd5b90910192915050565b60008083357fffffffffffffffffffffffffffffffffffffffffffffffffffffffffffffffe1843603018112612fd857600080fd5b830160208101925035905067ffffffffffffffff811115612ff857600080fd5b8060051b3603821315611d1257600080fd5b8183528181602085013750600060208284010152600060207fffffffffffffffffffffffffffffffffffffffffffffffffffffffffffffffe0601f840116840101905092915050565b81835260007f07ffffffffffffffffffffffffffffffffffffffffffffffffffffffffffffff83111561308557600080fd5b8260051b80836020870137939093016020019392505050565b6000604083016130ae8384612fa3565b604086528281845260608701905060608260051b88010193508260005b8381101561317a577fffffffffffffffffffffffffffffffffffffffffffffffffffffffffffffffa089870301835281357fffffffffffffffffffffffffffffffffffffffffffffffffffffffffffffffe186360301811261312c57600080fd5b8501602081810191359067ffffffffffffffff82111561314b57600080fd5b81360383131561315a57600080fd5b61316589838561300a565b985094850194939093019250506001016130cb565b505050505061318c6020840184612fa3565b8583036020870152612b9f838284613053565b600073ffffffffffffffffffffffffffffffffffffffff808516835260206040818501526131cd8586612f66565b6040808601526131e0608086018261309e565b9050818601357fffffffffffffffffffffffffffffffffffffffffffffffffffffffffffffffa187360301811261321657600080fd5b86810190507fffffffffffffffffffffffffffffffffffffffffffffffffffffffffffffffc086830301606087015260608201813561325481612466565b851683528184013561326581612466565b8516838501526132786040830183612fa3565b95509150606060408401528085825260808401905060808660051b85010191508260005b878110156132f0577fffffffffffffffffffffffffffffffffffffffffffffffffffffffffffffff808685030183526132de846132d98488612f66565b61309e565b9350918601919086019060010161329c565b50919a9950505050505050505050565b7f4e487b7100000000000000000000000000000000000000000000000000000000600052603260045260246000fd5b60008083357fffffffffffffffffffffffffffffffffffffffffffffffffffffffffffffffe184360301811261336457600080fd5b83018035915067ffffffffffffffff82111561337f57600080fd5b602001915036819003821315611d1257600080fd5b60007fffffffffffffffffffffffffffffffffffffffffffffffffffffffffffffffff82036133ec577f4e487b7100000000000000000000000000000000000000000000000000000000600052601160045260246000fd5b5060010190565b815160009082906020808601845b8381101561341d57815185529382019390820190600101613401565b50929695505050505050565b8281526040602082015260006102e56040830184612cc0565b604081526000835160408084015261345d608084018261295d565b905060208501517fffffffffffffffffffffffffffffffffffffffffffffffffffffffffffffffc08483030160608501526134988282612cc0565b9150508281036020840152610fe98185612cc0565b6000602082840312156134bf57600080fd5b81516106ef81612466565b60008251612d9b8184602087016128ef565b7f4e487b7100000000000000000000000000000000000000000000000000000000600052602160045260246000fd5b8281526040602082015260006102e56040830184612913565b60006020828403121561353657600080fd5b5051919050565b838152826020820152606060408201526000610fe96060830184612cf0565b600082601f83011261356d57600080fd5b8151602061357d6126948361264f565b82815260059290921b8401810191818101908684111561359c57600080fd5b8286015b84811015610ac857805183529183019183016135a0565b6000806000606084860312156135cc57600080fd5b835167ffffffffffffffff808211156135e457600080fd5b6135f08783880161355c565b94506020860151915061360282612466565b60408601519193508082111561361757600080fd5b506136248682870161355c565b9150509250925092565b600082613664577f4e487b7100000000000000000000000000000000000000000000000000000000600052601260045260246000fd5b500490565b6020815260006106ef6020830184612913565b60006020828403121561368e57600080fd5b815180151581146106ef57600080fdfe416464726573733a206c6f772d6c6576656c2064656c65676174652063616c6c206661696c6564a26469706673582212203607933de55472650eb29afdda3dd51b6c1445f615aa00a7ba32fbc284663e8964736f6c63430008110033",
  "linkReferences": {},
  "deployedLinkReferences": {}
}